{
  "_format": "hh-sol-artifact-1",
  "contractName": "NFT",
  "sourceName": "contracts/NFT.sol",
  "abi": [
    {
      "inputs": [],
      "stateMutability": "nonpayable",
      "type": "constructor"
    },
    {
      "anonymous": false,
      "inputs": [
        {
          "indexed": true,
          "internalType": "address",
          "name": "owner",
          "type": "address"
        },
        {
          "indexed": true,
          "internalType": "address",
          "name": "approved",
          "type": "address"
        },
        {
          "indexed": true,
          "internalType": "uint256",
          "name": "tokenId",
          "type": "uint256"
        }
      ],
      "name": "Approval",
      "type": "event"
    },
    {
      "anonymous": false,
      "inputs": [
        {
          "indexed": true,
          "internalType": "address",
          "name": "owner",
          "type": "address"
        },
        {
          "indexed": true,
          "internalType": "address",
          "name": "operator",
          "type": "address"
        },
        {
          "indexed": false,
          "internalType": "bool",
          "name": "approved",
          "type": "bool"
        }
      ],
      "name": "ApprovalForAll",
      "type": "event"
    },
    {
      "anonymous": false,
      "inputs": [
        {
          "indexed": true,
          "internalType": "address",
          "name": "from",
          "type": "address"
        },
        {
          "indexed": true,
          "internalType": "address",
          "name": "to",
          "type": "address"
        },
        {
          "indexed": true,
          "internalType": "uint256",
          "name": "tokenId",
          "type": "uint256"
        }
      ],
      "name": "Transfer",
      "type": "event"
    },
    {
      "inputs": [
        {
          "internalType": "address",
          "name": "to",
          "type": "address"
        },
        {
          "internalType": "uint256",
          "name": "tokenId",
          "type": "uint256"
        }
      ],
      "name": "approve",
      "outputs": [],
      "stateMutability": "nonpayable",
      "type": "function"
    },
    {
      "inputs": [
        {
          "internalType": "address",
          "name": "owner",
          "type": "address"
        }
      ],
      "name": "balanceOf",
      "outputs": [
        {
          "internalType": "uint256",
          "name": "",
          "type": "uint256"
        }
      ],
      "stateMutability": "view",
      "type": "function"
    },
    {
      "inputs": [
        {
          "internalType": "uint256",
          "name": "tokenId",
          "type": "uint256"
        }
      ],
      "name": "getApproved",
      "outputs": [
        {
          "internalType": "address",
          "name": "",
          "type": "address"
        }
      ],
      "stateMutability": "view",
      "type": "function"
    },
    {
      "inputs": [
        {
          "internalType": "address",
          "name": "owner",
          "type": "address"
        },
        {
          "internalType": "address",
          "name": "operator",
          "type": "address"
        }
      ],
      "name": "isApprovedForAll",
      "outputs": [
        {
          "internalType": "bool",
          "name": "",
          "type": "bool"
        }
      ],
      "stateMutability": "view",
      "type": "function"
    },
    {
      "inputs": [],
      "name": "name",
      "outputs": [
        {
          "internalType": "string",
          "name": "",
          "type": "string"
        }
      ],
      "stateMutability": "view",
      "type": "function"
    },
    {
      "inputs": [
        {
          "internalType": "uint256",
          "name": "tokenId",
          "type": "uint256"
        }
      ],
      "name": "ownerOf",
      "outputs": [
        {
          "internalType": "address",
          "name": "",
          "type": "address"
        }
      ],
      "stateMutability": "view",
      "type": "function"
    },
    {
      "inputs": [
        {
          "internalType": "address",
          "name": "account",
          "type": "address"
        },
        {
          "internalType": "uint256",
          "name": "tokenId",
          "type": "uint256"
        }
      ],
      "name": "safeMint",
      "outputs": [],
      "stateMutability": "nonpayable",
      "type": "function"
    },
    {
      "inputs": [
        {
          "internalType": "address",
          "name": "from",
          "type": "address"
        },
        {
          "internalType": "address",
          "name": "to",
          "type": "address"
        },
        {
          "internalType": "uint256",
          "name": "tokenId",
          "type": "uint256"
        }
      ],
      "name": "safeTransferFrom",
      "outputs": [],
      "stateMutability": "nonpayable",
      "type": "function"
    },
    {
      "inputs": [
        {
          "internalType": "address",
          "name": "from",
          "type": "address"
        },
        {
          "internalType": "address",
          "name": "to",
          "type": "address"
        },
        {
          "internalType": "uint256",
          "name": "tokenId",
          "type": "uint256"
        },
        {
          "internalType": "bytes",
          "name": "data",
          "type": "bytes"
        }
      ],
      "name": "safeTransferFrom",
      "outputs": [],
      "stateMutability": "nonpayable",
      "type": "function"
    },
    {
      "inputs": [
        {
          "internalType": "address",
          "name": "operator",
          "type": "address"
        },
        {
          "internalType": "bool",
          "name": "approved",
          "type": "bool"
        }
      ],
      "name": "setApprovalForAll",
      "outputs": [],
      "stateMutability": "nonpayable",
      "type": "function"
    },
    {
      "inputs": [
        {
          "internalType": "bytes4",
          "name": "interfaceId",
          "type": "bytes4"
        }
      ],
      "name": "supportsInterface",
      "outputs": [
        {
          "internalType": "bool",
          "name": "",
          "type": "bool"
        }
      ],
      "stateMutability": "view",
      "type": "function"
    },
    {
      "inputs": [],
      "name": "symbol",
      "outputs": [
        {
          "internalType": "string",
          "name": "",
          "type": "string"
        }
      ],
      "stateMutability": "view",
      "type": "function"
    },
    {
      "inputs": [
        {
          "internalType": "uint256",
          "name": "tokenId",
          "type": "uint256"
        }
      ],
      "name": "tokenURI",
      "outputs": [
        {
          "internalType": "string",
          "name": "",
          "type": "string"
        }
      ],
      "stateMutability": "view",
      "type": "function"
    },
    {
      "inputs": [
        {
          "internalType": "address",
          "name": "from",
          "type": "address"
        },
        {
          "internalType": "address",
          "name": "to",
          "type": "address"
        },
        {
          "internalType": "uint256",
          "name": "tokenId",
          "type": "uint256"
        }
      ],
      "name": "transferFrom",
      "outputs": [],
      "stateMutability": "nonpayable",
      "type": "function"
    }
  ],
  "bytecode": "0x60806040523480156200001157600080fd5b506040518060400160405280600981526020017f4552433732314e465400000000000000000000000000000000000000000000008152506040518060400160405280600581526020017f4d794e4654000000000000000000000000000000000000000000000000000000815250816000908051906020019062000096929190620000d7565b508060019080519060200190620000af929190620000d7565b505050620000ce67bc8794b2cddbf62060c01b620000d460201b60201c565b620001ec565b50565b828054620000e590620001b6565b90600052602060002090601f01602090048101928262000109576000855562000155565b82601f106200012457805160ff191683800117855562000155565b8280016001018555821562000155579182015b828111156200015457825182559160200191906001019062000137565b5b50905062000164919062000168565b5090565b5b808211156200018357600081600090555060010162000169565b5090565b7f4e487b7100000000000000000000000000000000000000000000000000000000600052602260045260246000fd5b60006002820490506001821680620001cf57607f821691505b60208210811415620001e657620001e562000187565b5b50919050565b61253c80620001fc6000396000f3fe608060405234801561001057600080fd5b50600436106100ea5760003560e01c806370a082311161008c578063a22cb46511610066578063a22cb4651461025b578063b88d4fde14610277578063c87b56dd14610293578063e985e9c5146102c3576100ea565b806370a08231146101f157806395d89b4114610221578063a14481941461023f576100ea565b8063095ea7b3116100c8578063095ea7b31461016d57806323b872dd1461018957806342842e0e146101a55780636352211e146101c1576100ea565b806301ffc9a7146100ef57806306fdde031461011f578063081812fc1461013d575b600080fd5b6101096004803603810190610104919061182e565b6102f3565b6040516101169190611876565b60405180910390f35b6101276103d5565b604051610134919061192a565b60405180910390f35b61015760048036038101906101529190611982565b610467565b60405161016491906119f0565b60405180910390f35b61018760048036038101906101829190611a37565b6104ad565b005b6101a3600480360381019061019e9190611a77565b6105c5565b005b6101bf60048036038101906101ba9190611a77565b610625565b005b6101db60048036038101906101d69190611982565b610645565b6040516101e891906119f0565b60405180910390f35b61020b60048036038101906102069190611aca565b6106cc565b6040516102189190611b06565b60405180910390f35b610229610784565b604051610236919061192a565b60405180910390f35b61025960048036038101906102549190611a37565b610816565b005b61027560048036038101906102709190611b4d565b610860565b005b610291600480360381019061028c9190611cc2565b610876565b005b6102ad60048036038101906102a89190611982565b6108d8565b6040516102ba919061192a565b60405180910390f35b6102dd60048036038101906102d89190611d45565b610940565b6040516102ea9190611876565b60405180910390f35b60007f80ac58cd000000000000000000000000000000000000000000000000000000007bffffffffffffffffffffffffffffffffffffffffffffffffffffffff1916827bffffffffffffffffffffffffffffffffffffffffffffffffffffffff191614806103be57507f5b5e139f000000000000000000000000000000000000000000000000000000007bffffffffffffffffffffffffffffffffffffffffffffffffffffffff1916827bffffffffffffffffffffffffffffffffffffffffffffffffffffffff1916145b806103ce57506103cd826109d4565b5b9050919050565b6060600080546103e490611db4565b80601f016020809104026020016040519081016040528092919081815260200182805461041090611db4565b801561045d5780601f106104325761010080835404028352916020019161045d565b820191906000526020600020905b81548152906001019060200180831161044057829003601f168201915b5050505050905090565b600061047282610a3e565b6004600083815260200190815260200160002060009054906101000a900473ffffffffffffffffffffffffffffffffffffffff169050919050565b60006104b882610645565b90508073ffffffffffffffffffffffffffffffffffffffff168373ffffffffffffffffffffffffffffffffffffffff161415610529576040517f08c379a000000000000000000000000000000000000000000000000000000000815260040161052090611e58565b60405180910390fd5b8073ffffffffffffffffffffffffffffffffffffffff16610548610a89565b73ffffffffffffffffffffffffffffffffffffffff161480610577575061057681610571610a89565b610940565b5b6105b6576040517f08c379a00000000000000000000000000000000000000000000000000000000081526004016105ad90611eea565b60405180910390fd5b6105c08383610a91565b505050565b6105d66105d0610a89565b82610b4a565b610615576040517f08c379a000000000000000000000000000000000000000000000000000000000815260040161060c90611f7c565b60405180910390fd5b610620838383610bdf565b505050565b61064083838360405180602001604052806000815250610876565b505050565b60008061065183610ed9565b9050600073ffffffffffffffffffffffffffffffffffffffff168173ffffffffffffffffffffffffffffffffffffffff1614156106c3576040517f08c379a00000000000000000000000000000000000000000000000000000000081526004016106ba90611fe8565b60405180910390fd5b80915050919050565b60008073ffffffffffffffffffffffffffffffffffffffff168273ffffffffffffffffffffffffffffffffffffffff16141561073d576040517f08c379a00000000000000000000000000000000000000000000000000000000081526004016107349061207a565b60405180910390fd5b600360008373ffffffffffffffffffffffffffffffffffffffff1673ffffffffffffffffffffffffffffffffffffffff168152602001908152602001600020549050919050565b60606001805461079390611db4565b80601f01602080910402602001604051908101604052809291908181526020018280546107bf90611db4565b801561080c5780601f106107e15761010080835404028352916020019161080c565b820191906000526020600020905b8154815290600101906020018083116107ef57829003601f168201915b5050505050905090565b61082a670ddaf3a80593364e60c01b610f16565b61083e67987a92ce5e00516860c01b610f16565b61085267e31050fdb17cac6360c01b610f16565b61085c8282610f19565b5050565b61087261086b610a89565b8383610f37565b5050565b610887610881610a89565b83610b4a565b6108c6576040517f08c379a00000000000000000000000000000000000000000000000000000000081526004016108bd90611f7c565b60405180910390fd5b6108d2848484846110a4565b50505050565b60606108e382610a3e565b60006108ed611100565b9050600081511161090d5760405180602001604052806000815250610938565b8061091784611117565b6040516020016109289291906120d6565b6040516020818303038152906040525b915050919050565b6000600560008473ffffffffffffffffffffffffffffffffffffffff1673ffffffffffffffffffffffffffffffffffffffff16815260200190815260200160002060008373ffffffffffffffffffffffffffffffffffffffff1673ffffffffffffffffffffffffffffffffffffffff16815260200190815260200160002060009054906101000a900460ff16905092915050565b60007f01ffc9a7000000000000000000000000000000000000000000000000000000007bffffffffffffffffffffffffffffffffffffffffffffffffffffffff1916827bffffffffffffffffffffffffffffffffffffffffffffffffffffffff1916149050919050565b610a47816111ef565b610a86576040517f08c379a0000000000000000000000000000000000000000000000000000000008152600401610a7d90611fe8565b60405180910390fd5b50565b600033905090565b816004600083815260200190815260200160002060006101000a81548173ffffffffffffffffffffffffffffffffffffffff021916908373ffffffffffffffffffffffffffffffffffffffff160217905550808273ffffffffffffffffffffffffffffffffffffffff16610b0483610645565b73ffffffffffffffffffffffffffffffffffffffff167f8c5be1e5ebec7d5bd14f71427d1e84f3dd0314c0f7b2291e5b200ac8c7c3b92560405160405180910390a45050565b600080610b5683610645565b90508073ffffffffffffffffffffffffffffffffffffffff168473ffffffffffffffffffffffffffffffffffffffff161480610b985750610b978185610940565b5b80610bd657508373ffffffffffffffffffffffffffffffffffffffff16610bbe84610467565b73ffffffffffffffffffffffffffffffffffffffff16145b91505092915050565b8273ffffffffffffffffffffffffffffffffffffffff16610bff82610645565b73ffffffffffffffffffffffffffffffffffffffff1614610c55576040517f08c379a0000000000000000000000000000000000000000000000000000000008152600401610c4c9061216c565b60405180910390fd5b600073ffffffffffffffffffffffffffffffffffffffff168273ffffffffffffffffffffffffffffffffffffffff161415610cc5576040517f08c379a0000000000000000000000000000000000000000000000000000000008152600401610cbc906121fe565b60405180910390fd5b610cd28383836001611230565b8273ffffffffffffffffffffffffffffffffffffffff16610cf282610645565b73ffffffffffffffffffffffffffffffffffffffff1614610d48576040517f08c379a0000000000000000000000000000000000000000000000000000000008152600401610d3f9061216c565b60405180910390fd5b6004600082815260200190815260200160002060006101000a81549073ffffffffffffffffffffffffffffffffffffffff02191690556001600360008573ffffffffffffffffffffffffffffffffffffffff1673ffffffffffffffffffffffffffffffffffffffff168152602001908152602001600020600082825403925050819055506001600360008473ffffffffffffffffffffffffffffffffffffffff1673ffffffffffffffffffffffffffffffffffffffff16815260200190815260200160002060008282540192505081905550816002600083815260200190815260200160002060006101000a81548173ffffffffffffffffffffffffffffffffffffffff021916908373ffffffffffffffffffffffffffffffffffffffff160217905550808273ffffffffffffffffffffffffffffffffffffffff168473ffffffffffffffffffffffffffffffffffffffff167fddf252ad1be2c89b69c2b068fc378daa952ba7f163c4a11628f55a4df523b3ef60405160405180910390a4610ed48383836001611236565b505050565b60006002600083815260200190815260200160002060009054906101000a900473ffffffffffffffffffffffffffffffffffffffff169050919050565b50565b610f3382826040518060200160405280600081525061123c565b5050565b8173ffffffffffffffffffffffffffffffffffffffff168373ffffffffffffffffffffffffffffffffffffffff161415610fa6576040517f08c379a0000000000000000000000000000000000000000000000000000000008152600401610f9d9061226a565b60405180910390fd5b80600560008573ffffffffffffffffffffffffffffffffffffffff1673ffffffffffffffffffffffffffffffffffffffff16815260200190815260200160002060008473ffffffffffffffffffffffffffffffffffffffff1673ffffffffffffffffffffffffffffffffffffffff16815260200190815260200160002060006101000a81548160ff0219169083151502179055508173ffffffffffffffffffffffffffffffffffffffff168373ffffffffffffffffffffffffffffffffffffffff167f17307eab39ab6107e8899845ad3d59bd9653f200f220920489ca2b5937696c31836040516110979190611876565b60405180910390a3505050565b6110af848484610bdf565b6110bb84848484611297565b6110fa576040517f08c379a00000000000000000000000000000000000000000000000000000000081526004016110f1906122fc565b60405180910390fd5b50505050565b606060405180602001604052806000815250905090565b6060600060016111268461142e565b01905060008167ffffffffffffffff81111561114557611144611b97565b5b6040519080825280601f01601f1916602001820160405280156111775781602001600182028036833780820191505090505b509050600082602001820190505b6001156111e4578080600190039150507f3031323334353637383961626364656600000000000000000000000000000000600a86061a8153600a85816111ce576111cd61231c565b5b04945060008514156111df576111e4565b611185565b819350505050919050565b60008073ffffffffffffffffffffffffffffffffffffffff1661121183610ed9565b73ffffffffffffffffffffffffffffffffffffffff1614159050919050565b50505050565b50505050565b6112468383611581565b6112536000848484611297565b611292576040517f08c379a0000000000000000000000000000000000000000000000000000000008152600401611289906122fc565b60405180910390fd5b505050565b60006112b88473ffffffffffffffffffffffffffffffffffffffff1661179f565b15611421578373ffffffffffffffffffffffffffffffffffffffff1663150b7a026112e1610a89565b8786866040518563ffffffff1660e01b815260040161130394939291906123a0565b602060405180830381600087803b15801561131d57600080fd5b505af192505050801561134e57506040513d601f19601f8201168201806040525081019061134b9190612401565b60015b6113d1573d806000811461137e576040519150601f19603f3d011682016040523d82523d6000602084013e611383565b606091505b506000815114156113c9576040517f08c379a00000000000000000000000000000000000000000000000000000000081526004016113c0906122fc565b60405180910390fd5b805181602001fd5b63150b7a0260e01b7bffffffffffffffffffffffffffffffffffffffffffffffffffffffff1916817bffffffffffffffffffffffffffffffffffffffffffffffffffffffff191614915050611426565b600190505b949350505050565b600080600090507a184f03e93ff9f4daa797ed6e38ed64bf6a1f010000000000000000831061148c577a184f03e93ff9f4daa797ed6e38ed64bf6a1f01000000000000000083816114825761148161231c565b5b0492506040810190505b6d04ee2d6d415b85acef810000000083106114c9576d04ee2d6d415b85acef810000000083816114bf576114be61231c565b5b0492506020810190505b662386f26fc1000083106114f857662386f26fc1000083816114ee576114ed61231c565b5b0492506010810190505b6305f5e1008310611521576305f5e10083816115175761151661231c565b5b0492506008810190505b612710831061154657612710838161153c5761153b61231c565b5b0492506004810190505b60648310611569576064838161155f5761155e61231c565b5b0492506002810190505b600a8310611578576001810190505b80915050919050565b600073ffffffffffffffffffffffffffffffffffffffff168273ffffffffffffffffffffffffffffffffffffffff1614156115f1576040517f08c379a00000000000000000000000000000000000000000000000000000000081526004016115e89061247a565b60405180910390fd5b6115fa816111ef565b1561163a576040517f08c379a0000000000000000000000000000000000000000000000000000000008152600401611631906124e6565b60405180910390fd5b611648600083836001611230565b611651816111ef565b15611691576040517f08c379a0000000000000000000000000000000000000000000000000000000008152600401611688906124e6565b60405180910390fd5b6001600360008473ffffffffffffffffffffffffffffffffffffffff1673ffffffffffffffffffffffffffffffffffffffff16815260200190815260200160002060008282540192505081905550816002600083815260200190815260200160002060006101000a81548173ffffffffffffffffffffffffffffffffffffffff021916908373ffffffffffffffffffffffffffffffffffffffff160217905550808273ffffffffffffffffffffffffffffffffffffffff16600073ffffffffffffffffffffffffffffffffffffffff167fddf252ad1be2c89b69c2b068fc378daa952ba7f163c4a11628f55a4df523b3ef60405160405180910390a461179b600083836001611236565b5050565b6000808273ffffffffffffffffffffffffffffffffffffffff163b119050919050565b6000604051905090565b600080fd5b600080fd5b60007fffffffff0000000000000000000000000000000000000000000000000000000082169050919050565b61180b816117d6565b811461181657600080fd5b50565b60008135905061182881611802565b92915050565b600060208284031215611844576118436117cc565b5b600061185284828501611819565b91505092915050565b60008115159050919050565b6118708161185b565b82525050565b600060208201905061188b6000830184611867565b92915050565b600081519050919050565b600082825260208201905092915050565b60005b838110156118cb5780820151818401526020810190506118b0565b838111156118da576000848401525b50505050565b6000601f19601f8301169050919050565b60006118fc82611891565b611906818561189c565b93506119168185602086016118ad565b61191f816118e0565b840191505092915050565b6000602082019050818103600083015261194481846118f1565b905092915050565b6000819050919050565b61195f8161194c565b811461196a57600080fd5b50565b60008135905061197c81611956565b92915050565b600060208284031215611998576119976117cc565b5b60006119a68482850161196d565b91505092915050565b600073ffffffffffffffffffffffffffffffffffffffff82169050919050565b60006119da826119af565b9050919050565b6119ea816119cf565b82525050565b6000602082019050611a0560008301846119e1565b92915050565b611a14816119cf565b8114611a1f57600080fd5b50565b600081359050611a3181611a0b565b92915050565b60008060408385031215611a4e57611a4d6117cc565b5b6000611a5c85828601611a22565b9250506020611a6d8582860161196d565b9150509250929050565b600080600060608486031215611a9057611a8f6117cc565b5b6000611a9e86828701611a22565b9350506020611aaf86828701611a22565b9250506040611ac08682870161196d565b9150509250925092565b600060208284031215611ae057611adf6117cc565b5b6000611aee84828501611a22565b91505092915050565b611b008161194c565b82525050565b6000602082019050611b1b6000830184611af7565b92915050565b611b2a8161185b565b8114611b3557600080fd5b50565b600081359050611b4781611b21565b92915050565b60008060408385031215611b6457611b636117cc565b5b6000611b7285828601611a22565b9250506020611b8385828601611b38565b9150509250929050565b600080fd5b600080fd5b7f4e487b7100000000000000000000000000000000000000000000000000000000600052604160045260246000fd5b611bcf826118e0565b810181811067ffffffffffffffff82111715611bee57611bed611b97565b5b80604052505050565b6000611c016117c2565b9050611c0d8282611bc6565b919050565b600067ffffffffffffffff821115611c2d57611c2c611b97565b5b611c36826118e0565b9050602081019050919050565b82818337600083830152505050565b6000611c65611c6084611c12565b611bf7565b905082815260208101848484011115611c8157611c80611b92565b5b611c8c848285611c43565b509392505050565b600082601f830112611ca957611ca8611b8d565b5b8135611cb9848260208601611c52565b91505092915050565b60008060008060808587031215611cdc57611cdb6117cc565b5b6000611cea87828801611a22565b9450506020611cfb87828801611a22565b9350506040611d0c8782880161196d565b925050606085013567ffffffffffffffff811115611d2d57611d2c6117d1565b5b611d3987828801611c94565b91505092959194509250565b60008060408385031215611d5c57611d5b6117cc565b5b6000611d6a85828601611a22565b9250506020611d7b85828601611a22565b9150509250929050565b7f4e487b7100000000000000000000000000000000000000000000000000000000600052602260045260246000fd5b60006002820490506001821680611dcc57607f821691505b60208210811415611de057611ddf611d85565b5b50919050565b7f4552433732313a20617070726f76616c20746f2063757272656e74206f776e6560008201527f7200000000000000000000000000000000000000000000000000000000000000602082015250565b6000611e4260218361189c565b9150611e4d82611de6565b604082019050919050565b60006020820190508181036000830152611e7181611e35565b9050919050565b7f4552433732313a20617070726f76652063616c6c6572206973206e6f7420746f60008201527f6b656e206f776e6572206f7220617070726f76656420666f7220616c6c000000602082015250565b6000611ed4603d8361189c565b9150611edf82611e78565b604082019050919050565b60006020820190508181036000830152611f0381611ec7565b9050919050565b7f4552433732313a2063616c6c6572206973206e6f7420746f6b656e206f776e6560008201527f72206f7220617070726f76656400000000000000000000000000000000000000602082015250565b6000611f66602d8361189c565b9150611f7182611f0a565b604082019050919050565b60006020820190508181036000830152611f9581611f59565b9050919050565b7f4552433732313a20696e76616c696420746f6b656e2049440000000000000000600082015250565b6000611fd260188361189c565b9150611fdd82611f9c565b602082019050919050565b6000602082019050818103600083015261200181611fc5565b9050919050565b7f4552433732313a2061646472657373207a65726f206973206e6f74206120766160008201527f6c6964206f776e65720000000000000000000000000000000000000000000000602082015250565b600061206460298361189c565b915061206f82612008565b604082019050919050565b6000602082019050818103600083015261209381612057565b9050919050565b600081905092915050565b60006120b082611891565b6120ba818561209a565b93506120ca8185602086016118ad565b80840191505092915050565b60006120e282856120a5565b91506120ee82846120a5565b91508190509392505050565b7f4552433732313a207472616e736665722066726f6d20696e636f72726563742060008201527f6f776e6572000000000000000000000000000000000000000000000000000000602082015250565b600061215660258361189c565b9150612161826120fa565b604082019050919050565b6000602082019050818103600083015261218581612149565b9050919050565b7f4552433732313a207472616e7366657220746f20746865207a65726f2061646460008201527f7265737300000000000000000000000000000000000000000000000000000000602082015250565b60006121e860248361189c565b91506121f38261218c565b604082019050919050565b60006020820190508181036000830152612217816121db565b9050919050565b7f4552433732313a20617070726f766520746f2063616c6c657200000000000000600082015250565b600061225460198361189c565b915061225f8261221e565b602082019050919050565b6000602082019050818103600083015261228381612247565b9050919050565b7f4552433732313a207472616e7366657220746f206e6f6e20455243373231526560008201527f63656976657220696d706c656d656e7465720000000000000000000000000000602082015250565b60006122e660328361189c565b91506122f18261228a565b604082019050919050565b60006020820190508181036000830152612315816122d9565b9050919050565b7f4e487b7100000000000000000000000000000000000000000000000000000000600052601260045260246000fd5b600081519050919050565b600082825260208201905092915050565b60006123728261234b565b61237c8185612356565b935061238c8185602086016118ad565b612395816118e0565b840191505092915050565b60006080820190506123b560008301876119e1565b6123c260208301866119e1565b6123cf6040830185611af7565b81810360608301526123e18184612367565b905095945050505050565b6000815190506123fb81611802565b92915050565b600060208284031215612417576124166117cc565b5b6000612425848285016123ec565b91505092915050565b7f4552433732313a206d696e7420746f20746865207a65726f2061646472657373600082015250565b600061246460208361189c565b915061246f8261242e565b602082019050919050565b6000602082019050818103600083015261249381612457565b9050919050565b7f4552433732313a20746f6b656e20616c7265616479206d696e74656400000000600082015250565b60006124d0601c8361189c565b91506124db8261249a565b602082019050919050565b600060208201905081810360008301526124ff816124c3565b905091905056fea2646970667358221220c309c24b3f376ce7858904c8ae9d8a7ee65893c389965d605482d7242e89e8e864736f6c63430008080033",
  "linkReferences": {},
  "deployedLinkReferences": {}
}