{
  "_format": "hh-sol-artifact-1",
  "contractName": "WhitelistAndClaim",
  "sourceName": "contracts/whitelistAndClaim.sol",
  "abi": [
    {
      "inputs": [
        {
          "internalType": "address",
          "name": "nftAddress",
          "type": "address"
        }
      ],
      "stateMutability": "nonpayable",
      "type": "constructor"
    },
    {
      "anonymous": false,
      "inputs": [
        {
          "indexed": true,
          "internalType": "address",
          "name": "account",
          "type": "address"
        },
        {
          "indexed": false,
          "internalType": "uint256",
          "name": "tokenId",
          "type": "uint256"
        },
        {
          "indexed": false,
          "internalType": "uint256",
          "name": "amount",
          "type": "uint256"
        }
      ],
      "name": "Claimed",
      "type": "event"
    },
    {
      "anonymous": false,
      "inputs": [
        {
          "indexed": true,
          "internalType": "address",
          "name": "account",
          "type": "address"
        }
      ],
      "name": "Whitelisted",
      "type": "event"
    },
    {
      "inputs": [],
      "name": "claimInterval",
      "outputs": [
        {
          "internalType": "uint8",
          "name": "",
          "type": "uint8"
        }
      ],
      "stateMutability": "view",
      "type": "function"
    },
    {
      "inputs": [],
      "name": "claimTokens",
      "outputs": [],
      "stateMutability": "nonpayable",
      "type": "function"
    },
    {
      "inputs": [
        {
          "internalType": "address",
          "name": "",
          "type": "address"
        }
      ],
      "name": "lastClaimed",
      "outputs": [
        {
          "internalType": "uint256",
          "name": "",
          "type": "uint256"
        }
      ],
      "stateMutability": "view",
      "type": "function"
    },
    {
      "inputs": [],
      "name": "owner",
      "outputs": [
        {
          "internalType": "address",
          "name": "",
          "type": "address"
        }
      ],
      "stateMutability": "view",
      "type": "function"
    },
    {
      "inputs": [
        {
          "internalType": "address",
          "name": "",
          "type": "address"
        }
      ],
      "name": "whitelist",
      "outputs": [
        {
          "internalType": "bool",
          "name": "",
          "type": "bool"
        }
      ],
      "stateMutability": "view",
      "type": "function"
    },
    {
      "inputs": [
        {
          "internalType": "address",
          "name": "_account",
          "type": "address"
        }
      ],
      "name": "whitelistAddress",
      "outputs": [],
      "stateMutability": "nonpayable",
      "type": "function"
    }
  ],
  "bytecode": "0x6080604052603c600060146101000a81548160ff021916908360ff16021790555060006002553480156200003257600080fd5b5060405162000f4238038062000f428339818101604052810190620000589190620001a1565b62000074679d63ad3a9e1ffbe960c01b6200013460201b60201c565b6200009067c5f243b10efd717d60c01b6200013460201b60201c565b336000806101000a81548173ffffffffffffffffffffffffffffffffffffffff021916908373ffffffffffffffffffffffffffffffffffffffff160217905550620000ec671ba01fbc5b98e6f260c01b6200013460201b60201c565b80600160006101000a81548173ffffffffffffffffffffffffffffffffffffffff021916908373ffffffffffffffffffffffffffffffffffffffff16021790555050620001d3565b50565b600080fd5b600073ffffffffffffffffffffffffffffffffffffffff82169050919050565b600062000169826200013c565b9050919050565b6200017b816200015c565b81146200018757600080fd5b50565b6000815190506200019b8162000170565b92915050565b600060208284031215620001ba57620001b962000137565b5b6000620001ca848285016200018a565b91505092915050565b610d5f80620001e36000396000f3fe608060405234801561001057600080fd5b50600436106100625760003560e01c8063013eba92146100675780630b433a121461009757806341566585146100b557806348c54b9d146100d15780638da5cb5b146100db5780639b19251a146100f9575b600080fd5b610081600480360381019061007c91906108e2565b610129565b60405161008e9190610928565b60405180910390f35b61009f610141565b6040516100ac919061095f565b60405180910390f35b6100cf60048036038101906100ca91906108e2565b610154565b005b6100d961044d565b005b6100e3610838565b6040516100f09190610989565b60405180910390f35b610113600480360381019061010e91906108e2565b61085c565b60405161012091906109bf565b60405180910390f35b60046020528060005260406000206000915090505481565b600060149054906101000a900460ff1681565b61016867db7cc21981f0441b60c01b61087c565b61017c672aa249d028e9221660c01b61087c565b6101906767e3fc7fd22598ad60c01b61087c565b6101a467a67758e832e9c19c60c01b61087c565b6101b867ebe56f707012334660c01b61087c565b60008054906101000a900473ffffffffffffffffffffffffffffffffffffffff1673ffffffffffffffffffffffffffffffffffffffff163373ffffffffffffffffffffffffffffffffffffffff1614610246576040517f08c379a000000000000000000000000000000000000000000000000000000000815260040161023d90610a5d565b60405180910390fd5b61025a6793780d504086401660c01b61087c565b61026e67de8ccf4555d1bd7760c01b61087c565b61028267976ec182de00e18960c01b61087c565b61029667e28b90cb5f38ee5d60c01b61087c565b6102aa676386e9eb043890f860c01b61087c565b6102be678bce0a295d05c5b160c01b61087c565b6102d267982031093d3a674460c01b61087c565b600360008273ffffffffffffffffffffffffffffffffffffffff1673ffffffffffffffffffffffffffffffffffffffff16815260200190815260200160002060009054906101000a900460ff161561035f576040517f08c379a000000000000000000000000000000000000000000000000000000000815260040161035690610ac9565b60405180910390fd5b610373670c8c25233abc6b3860c01b61087c565b61038767fe091c0e449eb02160c01b61087c565b6001600360008373ffffffffffffffffffffffffffffffffffffffff1673ffffffffffffffffffffffffffffffffffffffff16815260200190815260200160002060006101000a81548160ff0219169083151502179055506103f3672d46ffdaece6e1b560c01b61087c565b610407674894e82bdb734a1660c01b61087c565b8073ffffffffffffffffffffffffffffffffffffffff167faab7954e9d246b167ef88aeddad35209ca2489d95a8aeb59e288d9b19fae5a5460405160405180910390a250565b61046167b7accac806c7331a60c01b61087c565b6104756722810a1fcdc4d0a260c01b61087c565b61048967de1dee390901764260c01b61087c565b61049d676b6621fac35ae12f60c01b61087c565b6104b1673499dd118b9befce60c01b61087c565b600360003373ffffffffffffffffffffffffffffffffffffffff1673ffffffffffffffffffffffffffffffffffffffff16815260200190815260200160002060009054906101000a900460ff1661053d576040517f08c379a000000000000000000000000000000000000000000000000000000000815260040161053490610b5b565b60405180910390fd5b6105516708c1e1090a95d97960c01b61087c565b61056567961fd9c94b5e448a60c01b61087c565b61057967b818df8a60e8813760c01b61087c565b61058d67d9856282e69d2e3c60c01b61087c565b6105a167063411ebf06ba7ee60c01b61087c565b6105b56773b25c23bd3dd87560c01b61087c565b6105c967caca978c6728741a60c01b61087c565b600060149054906101000a900460ff1660ff16600460003373ffffffffffffffffffffffffffffffffffffffff1673ffffffffffffffffffffffffffffffffffffffff168152602001908152602001600020546106269190610baa565b421015610668576040517f08c379a000000000000000000000000000000000000000000000000000000000815260040161065f90610c72565b60405180910390fd5b61067c67924556fa10b7d80160c01b61087c565b61069067e289b77dadf4b6e260c01b61087c565b42600460003373ffffffffffffffffffffffffffffffffffffffff1673ffffffffffffffffffffffffffffffffffffffff168152602001908152602001600020819055506106e86726239b3b8c9691b260c01b61087c565b6106fc675b8ac5d4e7b1520460c01b61087c565b600160009054906101000a900473ffffffffffffffffffffffffffffffffffffffff1673ffffffffffffffffffffffffffffffffffffffff1663a1448194336002546040518363ffffffff1660e01b815260040161075b929190610c92565b600060405180830381600087803b15801561077557600080fd5b505af1158015610789573d6000803e3d6000fd5b505050506107a1679dae5f61465596ee60c01b61087c565b6001600260008282546107b49190610baa565b925050819055506107cf677fe12c03482c771660c01b61087c565b6107e367a41b676b541ebb3760c01b61087c565b3373ffffffffffffffffffffffffffffffffffffffff167f987d620f307ff6b94d58743cb7a7509f24071586a77759b77c2d4e29f75a2f9a600254600160405161082e929190610d00565b60405180910390a2565b60008054906101000a900473ffffffffffffffffffffffffffffffffffffffff1681565b60036020528060005260406000206000915054906101000a900460ff1681565b50565b600080fd5b600073ffffffffffffffffffffffffffffffffffffffff82169050919050565b60006108af82610884565b9050919050565b6108bf816108a4565b81146108ca57600080fd5b50565b6000813590506108dc816108b6565b92915050565b6000602082840312156108f8576108f761087f565b5b6000610906848285016108cd565b91505092915050565b6000819050919050565b6109228161090f565b82525050565b600060208201905061093d6000830184610919565b92915050565b600060ff82169050919050565b61095981610943565b82525050565b60006020820190506109746000830184610950565b92915050565b610983816108a4565b82525050565b600060208201905061099e600083018461097a565b92915050565b60008115159050919050565b6109b9816109a4565b82525050565b60006020820190506109d460008301846109b0565b92915050565b600082825260208201905092915050565b7f4f6e6c7920636f6e7472616374206f776e65722063616e20706572666f726d2060008201527f7468697320616374696f6e2e0000000000000000000000000000000000000000602082015250565b6000610a47602c836109da565b9150610a52826109eb565b604082019050919050565b60006020820190508181036000830152610a7681610a3a565b9050919050565b7f4164647265737320697320616c72656164792077686974656c69737465642e00600082015250565b6000610ab3601f836109da565b9150610abe82610a7d565b602082019050919050565b60006020820190508181036000830152610ae281610aa6565b9050919050565b7f596f7520617265206e6f742077686974656c697374656420746f20706572666f60008201527f726d207468697320616374696f6e2e0000000000000000000000000000000000602082015250565b6000610b45602f836109da565b9150610b5082610ae9565b604082019050919050565b60006020820190508181036000830152610b7481610b38565b9050919050565b7f4e487b7100000000000000000000000000000000000000000000000000000000600052601160045260246000fd5b6000610bb58261090f565b9150610bc08361090f565b9250827fffffffffffffffffffffffffffffffffffffffffffffffffffffffffffffffff03821115610bf557610bf4610b7b565b5b828201905092915050565b7f436c61696d20696e74657276616c206f662031206d696e75746520686173206e60008201527f6f7420706173736564207965742e000000000000000000000000000000000000602082015250565b6000610c5c602e836109da565b9150610c6782610c00565b604082019050919050565b60006020820190508181036000830152610c8b81610c4f565b9050919050565b6000604082019050610ca7600083018561097a565b610cb46020830184610919565b9392505050565b6000819050919050565b6000819050919050565b6000610cea610ce5610ce084610cbb565b610cc5565b61090f565b9050919050565b610cfa81610ccf565b82525050565b6000604082019050610d156000830185610919565b610d226020830184610cf1565b939250505056fea26469706673582212207cedb2f5b7e451288a5a31436c3490d168d08b48d7cfa5427c80f2a0b9fbd50064736f6c63430008080033",
  "linkReferences": {},
  "deployedLinkReferences": {}
}